:100000008031772B0000C3376E33E9337539693798
:100010006710C9285319B51920108A06201000004E
:10002000D232E734733A65392010252C2C10200089
:10003000C430F430A02965377410A0125810200085
:10004000C430F430A0236F3A2010A01258050D10D0
:100050002000C437EE322E172E1020050D10200080
:10006000D437F5316810533A613AF5392010252C10
:100070008A0620100001413AF4326D38F434EE3330
:10008000A021EF36ED392E172E050D1000000B08BC
:10009000DC008B13230095171514000000001308D3
:1000A0007F3903198E282000DD002300110820006D
:1000B000DE00230012082000DF005D08111E5E280C
:1000C00023009A0020005E082300910020005F08B2
:1000D000230092009517151400000000130D140D55
:1000E0007F3903198E282000DD002300110820002D
:1000F000DE00230012082000DF005D08111E7E28AC
:1001000023009A0020005E082300910020005F0871
:1001100023009200910A0319920A4B282000DC1B4D
:100120008B170800203085003C308400000803193C
:10013000A6280230F800F701F70B9C28F80B9B2843
:100140009730F700F70BA228800B99280800083099
:10015000F800000022000D1221000D120000200006
:10016000DD0D22008D10031CB82821008D14220003
:100170000318BD2821008D10220021000D1620003B
:100180000D1EC028F80BA928000022000D12210026
:100190000D1200008D14000000000D1620000D1E31
:1001A000CF28F80100008D18781422000D122100CC
:1001B0000D1222008D1021008D1020000800083043
:1001C000DD007708DE0021008D1400000D162000F0
:1001D0000D1EE8288D1803148D1C0310F80D000067
:1001E00021000D1222000D122000DD0BE32821005A
:1001F0008D14000022008D1020005E0803190329D1
:1002000021008D102000000021000D1620000D1E81
:100210000729000022000D1221000D12000022000B
:100220008D1021008D10200008000B08DE008B13BC
:100230002300951715140000000003184429130823
:100240007F392000DF00230011082000E000230098
:1002500012082000E1005F08111E2C2923009A00DB
:100260002000600823009100200061082300920014
:1002700095171514000000002000DD0B40294229CD
:100280002300442965292300130D140D7F39200014
:10029000DF00230011082000E000230012082000E6
:1002A000E1005F08111E522923009A002000600817
:1002B000230091002000610823009200910A031995
:1002C000920A03102000DD0B1829DE1B8B17080093
:1002D000DE1B7D290F30F7005D0EF7050A3077022F
:1002E000031875293030F70777295E08F707770874
:1002F000111E782923009A0020000F30DD050A30F6
:100300005D020318852930308729DE135E08DD077A
:100310005D08111E892923009A0020000800C430BE
:10032000AE009630AF00C530B0009630B100C63098
:10033000B200A130B300C730B400B530B500C8304A
:10034000B600A530B700C930B800A530B900CA3032
:10035000BA00A630BB00CB30BC000F30BD00CC30A3
:10036000BE000F30BF00CD30C0000F30C100CE3016
:10037000C2000D30C300CF30C4000D30C500D030F6
:10038000C6000D30C700D130C8003730C900D230A8
:10039000CA008030CB00D330CC00CD01D430CE00A9
:1003A000CF01D530D0000730D100D630D200D301F4
:1003B000D730D400D501D830D600D701D930D800F5
:1003C000C230D900DD30DA00DB01033023009100B8
:1003D000003092002000472021008C1022008C1059
:1003E0000A302000DC00922021008C140130200013
:1003F000DC00922021008C1420008C18E52AA20138
:1004000022082D3C031CD12A21008D1400000D165A
:10041000000022008D1021008D10000022000D121E
:1004200021000D1220002608DD00A7200E30220733
:100430008400203085000318850A0008DC00DD00F8
:10044000A720013022070E3E8400203085000318CB
:10045000850A0008DC00DD00A72021008D140000C3
:100460000D16000020000D1E332A22008D102100E1
:100470008D10000022000D1221000D122000260810
:10048000DD00A7200E3022078400203085000318ED
:10049000850A0008DC00DD00A72021008D14000083
:1004A0000D16000020000D1E532A22008D10210081
:1004B0008D10000022000D1221000D1201302000CD
:1004C0002607DC00DD00A720F701DF207808A40064
:1004D0000E3022078400203085000318850A0008AA
:1004E000DC001030230091000030920003100A302D
:1004F0002000DD0015215C08DD003730DE006821BA
:100500002C30111E812A23009A0020302000111E59
:10051000872A23009A0020302000111E8D2A2300F4
:100520009A000130200022070E3E84002030850012
:100530000318850A0008DC00183023009100003001
:10054000920003100B302000DD0015215C08DD0057
:100550003730DE0068212030111EAC2A23009A00BB
:1005600020302000111EB22A23009A002030910072
:100570000030920003100B302000DD00152124080C
:10058000DD003730DE006821263023009100003086
:100590009200031404302000DD0015210230A20770
:1005A000002A21008D1000000D1620000D1ED62AF5
:1005B0000000DA2A000021008D14000029302300F9
:1005C000910000309200200047208031B42B2100A0
:1005D0008D1400000D16000022008D1021008D10DA
:1005E000000022000D1221000D1220002708DD005E
:1005F000A7200330DD00A7202E08DD00A720210062
:100600008D1000000D1620000D1E042B0000082B7D
:10061000000021008D14000080312000B92B210042
:100620008D1400000D16000022008D1021008D1089
:10063000000022000D1221000D1220002708DD000D
:10064000A7200130DD00A7202E08DD00A720210013
:100650008D1000000D1620000D1E2C2B0000302BDD
:10066000000021008D1400002000080021008D14DE
:1006700000000D16000022008D1021008D100000DA
:1006800022000D1221000D1220002608DD00A720F7
:100690003530DD00A72021008D1400000D1600006C
:1006A00020000D1E512B22008D1021008D10000006
:1006B00022000D1221000D12013020002607AE008D
:1006C000DD00A720F701DF207808A40021008D10AD
:1006D00000000D1620000D1E6B2B00006F2B00007C
:1006E00021008D14000020002408F8000800850176
:1006F00084011F30830522001E149D17193023002A
:100700009B00A6309E0090309D0088302000A600FF
:100710004030A70023008C018D012200920191013D
:100720009401930121001508C03907389500053060
:100730002000980099017030210099001E109E1031
:100740001E111C3023008C0000308D0021001E166D
:100750009E161E139E171D142200920191019401F2
:100760009301970120008F296430DC009220AE01B4
:10077000E72AFF30AE000F236430DC009220FF3008
:10078000AA00AB00AF30AC00FF30AD002A082B054B
:100790002C052D05A90021008C1420008C18512C4B
:1007A00036237808A8002808813C031DDC2B2A0F7B
:1007B000DC2BFC30AA00F02B2808813C0319E22B2B
:1007C0000030E32B0130AE002A08FC3C0319EA2B71
:1007D0000030EB2B01302E050319F02BFF30AA005F
:1007E0002808843C031DF92B2B0FF92BF330AB00A9
:1007F0000D2C2808843C0319FF2B0030002C0130FD
:10080000AE002B08F33C0319072C0030082C0130F4
:100810002E0503190D2CFF30AB002808823C031D68
:100820001A2C2C08AF3C031D1A2CFF30AC005F3093
:10083000AD00302C2808823C0319202C0030212CDC
:100840000130AE002D085F3C0319282C0030292C04
:1008500001302E050319302CFF30AD00AF30AC0055
:100860003030230091000030920003100E30200041
:10087000DD0015212808DD003730DE006821383022
:100880002300910000309200031004302000DD00AE
:1008900015212A082B052C052D05A9002908AE00D5
:1008A0000F23CB2BFC30AE000F230430AE00FA3008
:1008B000DC009220AE0B572CF330AE000F23043037
:1008C000AE00FA30DC009220AE0B612CAF30AE00EF
:1008D0000F230430AE00FA30DC009220AE0B6B2CFC
:1008E0005F30AE000F230430AE00FA30DC009220FF
:1008F000AE0B752C0F30AE000F230430AE00FA3073
:10090000DC009220AE0B7F2CFF30AE000F230430B2
:10091000AE00FA30DC009220AE0B892C3B30230075
:100920009100003092002000472021008C1022000E
:100930008C100F302000DC00922021008C1401303C
:100940002000DC00922021008C1420008C1C362317
:04095000522C6300C2
:020000040001F9
:04000E008409FF1E44
:00000001FF
;PIC16F1827
;CRC=271D  CREATED="22-Feb-14 18:51"
