:100000008031CE2900008A06533A6139741D8A0670
:100010000000C1214B10613264393A10252C8A0648
:1000200000008A06CE37743469376710C6377537D3
:1000300064008A06CE3A6D316539A03766106919B9
:100040006310633469387310E6377537641DA01286
:100050007500203085000C308400000803193D280D
:100060000230F800F701F70B3328F80B32289730ED
:10007000F700F70B3928800B3028080021008D117C
:1000800022008D11FA302000AC00292021008D11B2
:1000900022008D1564302000AC0029208031002A18
:1000A0000B08AB008B1323009517151400000000FC
:1000B00013087F39031997282000AC00230011088A
:1000C0002000AD00230012082000AE002C08111EF5
:1000D000672823009A0020002D08230091002000AB
:1000E0002E08230092009517151400000000130D30
:1000F000140D7F39031997282000AC002300110844
:100100002000AD00230012082000AE002C08111EB4
:10011000872823009A0020002D082300910020004A
:100120002E0823009200910A0319920A54282000F5
:10013000AB1B8B17080021008D1400000D1600006A
:1001400022008D1021008D10000022000D122100D0
:100150000D1220002B08AD000830F800000022002E
:100160000D1221000D1200002000AD0D22008D1097
:10017000031CBD2821008D1422000318C228210071
:100180008D10220021000D1620000D1EC528F80B31
:10019000AE28000022000D1221000D1200008D1467
:1001A000000000000D1620000D1ED428F8010000EC
:1001B0008D18781422000D1221000D1222008D10CE
:1001C00021008D1078082000AC0021008D10000067
:1001D0000D1620000D1EEA280000EE280000210068
:1001E0008D1400002000AC08031DFA280130F8002F
:1001F000FD28FD280030F800FD288031182A0B0862
:10020000AC008B1323009517151400000000031891
:100210002E2913087F392000AD002300110820008B
:10022000AE00230012082000AF002D08111E162971
:1002300023009A0020002E082300910020002F08A0
:100240002300920095171514000000002000AB0B4E
:100250002A292C2923002E294F292300130D140DA0
:100260007F392000AD00230011082000AE002300DC
:1002700012082000AF002D08111E3C2923009A000F
:1002800020002E082300910020002F082300920058
:10029000910A0319920A03102000AB0B0229AC1B30
:1002A0008B170800AC1B67290F30F7002B0EF705E2
:1002B0000A30770203185F293030F70761292C08CC
:1002C000F7077708111E622923009A0020000F30DB
:1002D000AB050A302B0203186F2930307129AC139B
:1002E0002C08AB072B08111E732923009A008031BC
:1002F00020002B2A2E08F8012D02031882292D0830
:10030000F7008E29F7010830AF00AD0DF70D2E086C
:1003100077020318F700F80DAF0B8529080078085D
:100320002B08AD006430AE007A217708AB00780866
:100330003030031DA229AC1CAC29AC19AC292C1AF5
:100340002030A529AC112C122C14F8077808111EA6
:10035000A72923009A0020002B08AD000A30AE0028
:100360007A217708AB0078083030031DBD29AC191D
:10037000C4292C1CC4292C1A2030F8077808111E17
:10038000BF2923009A0020003030AB072B08111E34
:10039000C72923009A00803120005C2A850184014E
:1003A0001F30830522001E149D17193023009B0067
:1003B000A6309E0090309D008C018D01220092019C
:1003C00091019401930121001508C0390738950067
:1003D00005302000980099017030210099001E100E
:1003E0009E101E11003023008C008D0021001D1076
:1003F00022009201910194019301970120003E286F
:10040000AA01033023009100003092002000502008
:100410000430AB00FA30AC002920AB0B0A2A1030B4
:10042000A8002808EF3C031C422A2808AB009B28A0
:100430007808A900290B3F2A0930230091000030D9
:10044000920003100A302000AB00FF202808AB0008
:100450003730AC0052290A30111E2C2A23009A0092
:100460000D302000111E322A23009A002000AA0A13
:100470000830AB00FA30AC002920AB0B3A2A02302E
:10048000A807112AAA08031D4D2A11302300910044
:1004900000309200200050205C2A19302300910087
:1004A0000030920003101D302000AB00FF202A080E
:0C04B000AB001B30AC008F295C2A6300FD
:020000040001F9
:04000E008409FF1E44
:00000001FF
;PIC16F1827
;CRC=7C77  CREATED="21-Dec-13 12:29"
