:10000000803186290000D421C11CB51AB52F413298
:100010006439E5397310252C20050D00203085004A
:10002000073084000008031922280230F800F70185
:10003000F70B1828F80B17289730F700F70B1E2836
:10004000800B1528080021008D1122008D11FA3037
:100050002000A7000E2021008D1122008D15643094
:100060002000A7000E208031C1290B08A7008B13A8
:1000700023009517151400000000031864281308C6
:100080007F392000A800230011082000A9002300C8
:1000900012082000AA002808111E4C2823009A00EC
:1000A000200029082300910020002A082300920044
:1000B00095171514000000002000A60B6028622888
:1000C0002300642885282300130D140D7F39200098
:1000D000A800230011082000A90023001208200016
:1000E000AA002808111E722823009A00200029085F
:1000F0002300910020002A0823009200910A03198E
:10010000920A03102000A60B3828A71B8B178031FA
:10011000CC29A71B9E280F30F700260EF7050A30C2
:100120007702031896283030F70798282708F70732
:100130007708111E992823009A0020000F30A60589
:100140000A3026020318A6283030A828A71327084B
:10015000A6072608111EAA2823009A008031200035
:10016000D1290830F800000022000D1221000D12E4
:1001700000002000AA0D22008D10031CC2282100BF
:100180008D1422000318C72821008D1022002100A1
:100190000D1620000D1ECA28F80BB32800002200FF
:1001A0000D1221000D1200008D14000000000D162C
:1001B00020000D1ED928F80100008D1878142200A7
:1001C0000D1221000D1222008D1021008D10200033
:1001D000080021008D1400000D16000022008D1073
:1001E00021008D10000022000D1221000D122000B0
:1001F0002008AA00B120A608031D02290630AA0083
:10020000B12005290730AA00B1202708AA00B12093
:1002100021008D1000000D1620000D1E0D2900007C
:100220001129000021008D14000020000800210089
:100230008D1400000D16000022008D1021008D107D
:10024000000022000D1221000D1220002008AA003B
:10025000B120A608031D30290230AA00B12033299D
:100260000330AA00B1202708AA00B12021008D1078
:1002700000000D1620000D1E3B2900003F29000044
:1002800021008D140000200008002708A800A90103
:10029000260803195529013A03195629033A031967
:1002A0005829013A03195B295E295F2929165F291C
:1002B0006030A9045F297030A9045F295F292100FB
:1002C0008D1400000D16000022008D1021008D10ED
:1002D000000022000D1221000D1258302000AA004B
:1002E000B1202908AA00B1202808AA00B1202100C5
:1002F0008D1000000D1620000D1E7C2900008029A5
:10030000000021008D1400002000080085018401F8
:100310001F30830522001E149D17193023009B00F7
:10032000A6309E0090309D0040302000A0002300A9
:100330008C018D0122009201910194019301210011
:100340001508C0390738950005302000980099013C
:100350007030210099001E109E101E111C302300C9
:100360008C0000308D0021001E169E161E139E1359
:100370001D14220092019101940193019701200024
:100380002328A501033023009100003092000310C0
:1003900010302000A60035282008A6003730A7001E
:1003A00089282030111ED22923009A000A3020000B
:1003B000111ED82923009A000D302000111EDE29BD
:1003C00023009A002000A601A701E9200130A60021
:1003D000A701E920A601FF30A70017210130A600E0
:1003E000A70117210230A600FA30A7000E20A60BA5
:1003F000F429A601A70117210130A600FF30A700AC
:1004000017210230A600FA30A7000E20A60B032AFF
:10041000EA290830F80021001D08833978049D007E
:100420000D30F700F70B122A9D140230F7009D1CC7
:100430001B2AF70B172A1C082000A200A60122087D
:10044000A70045210C30F80021001D0883397804ED
:100450009D000D30F700F70B2B2A9D140230F7009A
:100460009D1C342AF70B302A1C082000A300013001
:10047000A6002308A70045211030F80021001D0820
:10048000833978049D000D30F700F70B452A9D1441
:100490000230F7009D1C4E2AF70B4A2A1C08200048
:1004A000A4000230A6002408A7004521092A630001
:020000040001F9
:04000E008409FF1E44
:00000001FF
;PIC16F1827
;CRC=CD5D  CREATED="21-Dec-13 12:34"
