:0600000080312A280000F7
:0800080083018A012000200899
:10001000A4002108A5002208A6002308A700850146
:1000200091308400801C162891181F282408A000F5
:100030002508A1002608A2002708A3000900210026
:100040000C11043022008C0607082000911091103A
:1000500080311628850184011F308305F03021008E
:10006000990023008C01220092019101F2302100BD
:10007000990022009D113530200098009901003030
:10008000A10004389C000A309B0021001115911436
:08009000C0308B044A28630014
:020000040001F9
:04000E00843FFF1E0E
:00000001FF
;PIC12F1822
;CRC=C9F9  CREATED="22-Jun-15 20:20"
