:0600000080311F29000001
:0800080083018A012000200899
:10001000A4002108A5002208A6002308A700850146
:1000200091308400001D162811191F282408A000F3
:100030002508A1002608A2002708A3000900A90896
:1000400003193C2822001D109D1021000C152500CD
:10005000930105309300940195011E109E1001300C
:1000600096002000A901250012082000AE002500FE
:1000700011082000AD00592822001D109D102100FC
:100080000C152500930104309300940195011E1076
:100090009E10013096002000A9002D0825001102B5
:1000A0002000AB002E082500123B2000AC000130E0
:1000B000AA0011118031162825367510ED3920055A
:1000C0000D000508BB000408BA00340EF038B60075
:1000D000B607E23EB700323EB90034080F39B70721
:1000E000B707B907E93EB800B807B807330E0F39AC
:1000F000B807B907B80DB90DB909B90D33080F39EB
:10010000B907B60D0730B5000A30B907B803031CAC
:100110008528B807B703031C8928B707B603031C53
:100120008D28B607B503031C91288501353084005E
:1001300007303A053A1384073930040203193A1795
:100140000008A000031DAC283A1BAC283A1AB628B8
:10015000BA19AC282030AF28BA153A123030A007AF
:100160002008111EB12823009A002000840A3A1F9B
:100170009C2880317A290B08B4008B132300951733
:100180001514000000000318EA2813087F39200026
:10019000B500230011082000B6002300120820003B
:1001A000B7003508111ED22823009A002000360817
:1001B00023009100200037082300920095171514A2
:1001C000000000002000B30BE628E8282300EA28FE
:1001D0000B292300130D140D7F392000B5002300D7
:1001E00011082000B600230012082000B7003508CF
:1001F000111EF82823009A002000360823009100E1
:100200002000370823009200910A0319920A031074
:100210002000B30BBE28B41B8B17803184292030FB
:10022000850014308400000803191D292830A0001F
:10023000A00B18290000800B162980318A2985011E
:1002400084011F3083053A30210099002000A80165
:100250000C3023009B00A6309E0090309D008C0146
:100260002200920191012000AD01AE01AA010130EE
:10027000A9003A302100990022001D109D10210094
:100280000C152500930104309300940195011E1074
:100290009E100130960022009D11353020009800FC
:1002A000990121001115C0308B048C1220302200DE
:1002B0008C062000AA08031985290B138B138B1BAE
:1002C0005E292C08B2002B08B100C0308B04320C20
:1002D000B000310CAF00B00CAF0CB00CAF0CB00CD8
:1002E000AF0C0F30B005103084003008B4002F0878
:1002F000B30061285D3023009100003092000314A8
:1003000006302000B300BB28AA010230B300FA3047
:0E031000B4000F29B30B872921005529630083
:020000040001F9
:04000E00843FFF1E0E
:00000001FF
;PIC12F1822
;CRC=4A7C  CREATED="18-Apr-14 20:07"
