:0600000080314C2D0000D0
:0800080083018A012000200899
:10001000A4002108A5002208A6002308A700850146
:1000200091308400801C162891187C28850191301D
:100030008400001D1D2811198F282408A000250800
:10004000A1002608A2002708A30009000B004A34DB
:10005000033444340334353403341A340334FB3466
:100060000234D8340234B43402348D34023464346B
:1000700002343A3402340C340234DE340134AB340A
:100080000134763401343E34013401340134C33454
:1000900000347F3400344D340034393400342F348C
:1000A00000340B0000340034CE3400349E3401346C
:1000B0006E340234383403340B340434D33404340F
:1000C000A23405346F3406343A3407340B34083420
:1000D000D4340834A43409346F340A343B340B3438
:1000E00008340C34D5340C34A2340D346F340E344F
:1000F0003B340F34003410342E08033C031C8A2890
:10010000031D86282D08E73C031C8A280130AD0713
:100110000030AE3D07089110911080311D282E0847
:10012000023C03189C28FF3A031D9A282D08833CA3
:1001300003189C28AA142A10AA1CAB28AE01AD01F2
:10014000250012082000BB00250011082000BA007D
:100150002A10AA10C0283A08250011022000AB007E
:100160003B082500123B2000AC00250012082000AF
:10017000BB00250011082000BA00AE01AD012A1411
:10018000111180311D28240095132000911145087C
:10019000240091000230951BD4282000911DCE2808
:1001A00000302400161B01302000A10008002400AC
:1001B00016141618D92820002908C500C320C20823
:1001C0000319E6286030C500C320E9284030C50087
:1001D000C320410CC400400CC300C40CC30CC40CAD
:1001E000C30CC40CC30C0F30C4054308C500C320A6
:1001F00040080F39C300C401C30DC40DC30DC40DA5
:10020000C30DC40DC30DC40DF030C3054308C500B4
:10021000C3202400161516190B2920000800A1017F
:10022000A201A001A3014108031D192940080319D7
:1002300033291030C2000310BE0DBF0DA00DA30D59
:1002400041082302031D262940082002031C2F29F0
:100250004008A002031CA3034108A3020314A10D3C
:10026000A20DC20B1B2980310F2EB630A000A301B6
:10027000A201A1013E083F0440044104031D42299C
:10028000A0014F290310A11B4E29BE0DBF0DC00DAB
:10029000C10DA30DA20DA10DA00B4229A113803108
:1002A000402E8E30A0004F08A1004E08A200A301EE
:1002B000A108031D65292208A100A2010830A0029F
:1002C000A108031D6529A0016D290310A11B6C293C
:1002D000A20DA10DA0036529A11308008030831C85
:1002E00074292100A10620002100A601A7012000F9
:1002F0006B082100A5002108A50620006A08031943
:100300008D2A2100A4002000A0002100200803194C
:10031000992AA4020319212A031CD2292108AA0020
:10032000AA172208A9002308A800A7010310AA0CF5
:10033000A90CA80CA70CA40B9529A51FA22926146B
:10034000B92A261024102616203085004D3084004E
:10035000CE2A2612A51BB829241CC529AA0CA90C33
:10036000A80CA70C2000A00A0319B32A2100C52954
:10037000AA1BC8290310A70DA80DA90DAA0D2000BE
:10038000A0030319B32A2100B8292617462A2613E9
:1003900020006B082100A500A51FD029AA17A72AB5
:1003A000AA13A72A2008A4002000A0006A082100A0
:1003B000A40220006B082100AA00AA1720006C08E4
:1003C0002100A90020006D082100A800A70103104A
:1003D000AA0CA90CA80CA70CA40BE629A51FF329AD
:1003E000A614B92AA6102410A61620308500533072
:1003F0008400CE2AA612A51B092A241C162AAA0CA0
:10040000A90CA80CA70C2000A00A0319B32A2100EC
:10041000162AAA1B192A0310A70DA80DA90DAA0DAB
:100420002000A0030319B32A2100092AA617462A8F
:10043000A6132108A500A11F1F2AAA17A72AAA13DD
:10044000A72A2108AA00AA172208A9002308A800A1
:10045000A51F2E2AAA132615B92A2611A701241092
:10046000203085004D308400CE2AA51B5E2A200056
:100470006B082100A500241C462AAA0CA90CA80C74
:10048000A70C2000A00A0319B32A2100A71F592A8C
:10049000A80A031D592AA90A031D592AAA0A031DDD
:1004A000592AAA0CA90CA80C2000A00A0319B32AE7
:1004B0002100261BC729A61B182A862A8030AA06D7
:1004C000AA1F662AB92A2108A500772A20006B08EE
:1004D0002100A500AA08031D772AA908031D772A71
:1004E000A808031D772A2000A0012100A72AAA1B23
:1004F000862A0310A70DA80DA90DAA0D2000A00B98
:10050000822A842A2100772AB32A2100A51F8A2A59
:10051000AA17A72AAA13A72A200021002008200032
:10052000A00021002108AA002208A9002308A80091
:10053000A72A20006A08A0006B082100AA0020005A
:100540006C082100A90020006D082100A8002A08DD
:100550002000A100210029082000A2002100280875
:100560002000A300EC2AA001A101A201A301EC2A12
:100570002100A701A809A909AA09A709A70A031D1B
:10058000C72AA80A031DC72AA90A0319AA0A2618F6
:10059000A129A618F22926192D2A632A0008A807DE
:1005A000031CD82AA90A031DD82AAA0A031924144D
:1005B00084030008A907031CE02AAA0A03192414CB
:1005C00084030008801F803AAA0703182414261AFF
:1005D000A929A61AFA29352A2000080083146508DB
:1005E000ED006408EC006308EB006208EA006108B3
:1005F0002100A300200060082100A20020005F0865
:100600002100A10020005E082100A00020006E2132
:100610002008E6002108E7002208E8002308E90096
:1006200083145D08ED005C08EC005B08EB005A08E1
:10063000EA0059082100A300200058082100A20068
:10064000200057082100A100200056082100A0002A
:1006500020006E216908ED006808EC006708EB00D7
:100660006608EA0023082100A300200022082100D8
:10067000A200200021082100A10020002008210064
:10068000A00020006A0803192D2C2100A8002008D2
:10069000031D4C2B20002D2CA802031C562B7F3051
:1006A000A807031C552B20002D2C602B8130A8029D
:1006B00003185C2B20002D2C031D602B20002D2CFB
:1006C00028082000A000A101A201A3012100A70188
:1006D00020006B082100A600A61720006C0821004E
:1006E000A50020006D082100A4001930A8002308EF
:1006F000A40203188B2B0130A50203188B2BA60232
:1007000003188B2BA70203188B2BA70AA60AA50A8E
:100710002308A407BF2B2208A5020318A62B01302B
:10072000A6020318A62BA7020318A62BA70AA60A3F
:100730002208A5072308A407031CBF2BA50A031D35
:10074000BF2BA60A031DBF2BA70ABF2B2108803889
:10075000A6020318BC2B0130A7020318BC2BA70A62
:1007600021088038A6072208A507031C9A2BA60A91
:10077000031D9A2BA70A9A2B200023142100A80BF3
:10078000C22BCF2B0310A40DA50DA60DA70D031092
:100790002000A30DA20DA10D2100A90D772B291C6E
:1007A000D92B03102000A10CA20CA30C2100A90C32
:1007B000DE2B2000A00303192D2C2100A91B072CE0
:1007C0000310A40DA50DA60DA70D2308A402031860
:1007D000F32B0130A5020318F32BA6020318F32B09
:1007E000A702031C1E2C2208A5020318FE2B0130B1
:1007F000A6020318FE2BA702031C1E2C210880381A
:10080000A6020318072C0130A702031C1E2C20008F
:10081000A30A03190D2C21001E2CA20A0319122C65
:1008200021001E2CA10A0319172C21001E2CA00A3E
:1008300003192D2CA10CA20CA30C210020006B0885
:100840002100A8002108A806A81F2A2C2000A11713
:10085000312C21002000A113312CA001A101A20103
:10086000A3012008E6002108E7002208E800230889
:10087000E90083145508ED005408EC005308EB0020
:100880005208EA0059082100A3002000580821005E
:10089000A200200057082100A100200056082100D6
:1008A000A00020006E216908ED006808EC006708D0
:1008B000EB006608EA0023082100A30020002208BC
:1008C0002100A200200021082100A1002000200812
:1008D0002100A00020006A0803190C2D2100A400AB
:1008E0002008031D752C20000C2DA4070318832C51
:1008F0007F30A40203187E2C20000C2D031D822CB7
:1009000020000C2D892C8130A407031C892C200089
:100910000C2D24082000A000A101A201A3016B0856
:100920002100A800A81720006C082100A7002000C3
:100930006D082100A6001830A400A501261CC72CB4
:1009400023082000A307031CAE2CA20A031DAE2C13
:10095000A10A031DAE2C2100A517200021002208AA
:100960002000A207031CBA2CA10A031DBA2C2100E7
:10097000A5172000210021082000EC00EC176C08CE
:10098000A107031CC62C2100A51720002100A50DDE
:100990002000A10CA20CA30C2100A80CA70CA60CF3
:1009A0000310A40B9D2C01302000A00703180C2D70
:1009B000A11BE32C2100A80D2000A30DA20DA10D69
:1009C000A00303190C2D2100A81FFD2C2000A30A51
:1009D0000319EC2C2100FD2CA20A0319F12C210093
:1009E000FD2CA10A0319F62C2100FD2CA10CA20C50
:1009F000A30CA00A03190C2D210020006B08210074
:100A0000A5002108A506A51F092D2000A117102D5E
:100A100021002000A113102DA001A101A201A3011A
:100A200083106108ED006008EC005F08EB005E08D1
:100A3000EA0023082100A300200022082100A200D0
:100A4000200021082100A100200020082100A00092
:100A500020006E218031CD2E8E30A0003E08A002F5
:100A60003F08A2004008A100A217A0080319432DC7
:100A70000310A208031D3F2DA1080319432DA20C4A
:100A8000A10CA00B382DBF1F4A2DA109A209A10A54
:100A90000319A20A8031D62E850184011F308305F7
:100AA0006230210099002000A8010C3023009B0037
:100AB000A6309E0090309D0021008C140C15013052
:100AC00024009200283095009413141323008C0105
:100AD0002200920191012000BA01BB012A10AA1440
:100AE000C030A90062302100990022001D109D1025
:100AF00021000C1525009301043093009401950109
:100B00001E109E100130960022001D1421001E169A
:100B10009E161E139E171D141E109E1010302300CB
:100B20008C0000308E000C302000A10021001D0838
:100B300083392000210421009D009E2D9F2D00005F
:100B400022009D1135302000980099010030A1004D
:100B500006389C001F309B00210011159114C030F5
:100B60008B0420002A1521009D149D18B52D1C080A
:100B70002000A30021001B082000AF002308B000C4
:100B80002A1DD42D3008B2002F08B1002F0DBE0051
:100B9000300DBF00BE0DBF0DFC30BE053F08C100CB
:100BA0003E08C000C201D7200A303107A100003042
:100BB000323DA30023083002031CE62D031DE42D63
:100BC0002F0821020318E62D2A1DFA2D0A303102C2
:100BD000A0000030323BA3002008A100300823020F
:100BE000031CFB2D031DF82D21082F020318FB2DDC
:100BF0002A19FB2D2A152A1CE12E0B138B138B1B94
:100C0000FE2D2C08BD002B08BC00C0308B043D0815
:100C1000BF003C08BE00C1013E30C0000F29B60134
:100C2000B5012208B4002108B3002A100130B90030
:100C30000310390DBE002620A0003E0A2620A30086
:100C40002008BE002308BF00B608031D372EB508D4
:100C5000031D372E34083F02031C372E031D342E8C
:100C600033083E02031C372E0130B907182E360810
:100C7000C1003508C0003408BF003308BE00352964
:100C80002008BE002108BF002208C0002308C100C0
:100C900001303902A0000310A00D2008C200262058
:100CA000A000420A2620A3002008CE002308CF007F
:100CB00051212008C2002108C3002208C4002308D3
:100CC000C5000310390DC6002620A000460A2620C4
:100CD000A3002008CE002308CF0051212008C60021
:100CE0002108C7002208C8002308C90001303902C2
:100CF000A0000310A00D2008CA005120A0004A0A3D
:100D00005120A3002008CE002308CF005121200845
:100D1000CA002108CB002208CC002308CD00031014
:100D2000390DCE005120A0004E0A5120A30020080A
:100D3000CE002308CF0051212008CE002108CF008B
:100D40002208D0002308D1004108D5004008D40073
:100D50003F08D3003E08D2004508D9004408D80017
:100D60004308D7004208D6004908DD004808DC00E7
:100D70004708DB004608DA004D08E1004C08E000B7
:100D80004B08DF004A08DE002308E5002208E400E3
:100D90002108E3002008E200EE2A2308C10022080F
:100DA000C0002108BF002008BE002C2D2208B8007A
:100DB0002108B7003808C1003708C000C201D72099
:060DC0002A11B32D6300AF
:020000040001F9
:04000E00843FFF1E0E
:00000001FF
;PIC12F1822
;CRC=6635  CREATED="08-Oct-15 19:26"
