:1000000000308A0004280000840183131F30830518
:100010001F1300308316910083129A010730990054
:10002000713083168F000F081F169F161F1383123F
:100030009F131F149A010730990083160508850045
:1000400006308312A000A00B2328000019088C1191
:10005000831699019B019C131C141A088312A1009A
:10006000241021182414013083169B009C131C14A7
:100070001A088312A100A4102118A41402308316B8
:100080009B009C131C141A088312A1002411211830
:100090002415241C4F288316871283128716A41C4C
:1000A00055288316071283120716241D5B28831612
:1000B000871183128715831607158312071D882859
:1000C0008316871220308312870683160715831242
:1000D000071965280130A406003024180130A50056
:1000E00083169B018312250883169A009C131C1506
:1000F00083120B08A0008B13831655309D00AA3085
:100100009D009C149C1882281C11831220088B04CB
:10011000831687148312871CB628831607121030A3
:100120008312870683168714831287189228023059
:10013000A4060030A4180130A500013083169B00EE
:100140008312250883169A009C131C1583120B0832
:10015000A0008B13831655309D00AA309D009C147F
:100160009C18B0281C11831220088B0483160714D6
:100170008312071CE4288316871108308312870630
:100180008316071483120718C0280430A406003011
:1001900024190130A500023083169B008312250824
:1001A00083169A009C131C1583120B08A0008B1356
:1001B000831655309D00AA309D009C149C18DE28A3
:0C01C0001C11831220088B045B286300D4
:02400E00C433B9
:00000001FF
;PIC16F688
;CRC=06B3  CREATED="06-Sep-13 14:55"
