:060000008031922900008E
:0800080083018A012000200899
:10001000A4002108A5002208A6002308A700850146
:1000200091308400801C1628911826288501913073
:100030008400001D1D28111939282408A000250856
:10004000A1002608A2002708A30009003008033CED
:10005000031C3428031D30282F08E73C031C3428D8
:100060000130AF070030B03D07089110911080318A
:100070001D283008023C03184728FF3A031D442876
:100080002F08833C031847282A15AA102A142A1D72
:100090005528B001AF01250012082000B800250046
:1000A00011082000B7002A116A283708250011021C
:1000B0002000AD0038082500123B2000AE002500CE
:1000C00012082000B800250011082000B700B00178
:1000D000AF01AA14111180311D2825367510ED3994
:1000E00020050D00240095132000911142082400E2
:1000F00091000230951B83282000911D7D2800303F
:100100002400161B01302000A10008002400161452
:100110001618882820002908C2007220BF08031979
:1001200095286030C200722098284030C2007220AA
:100130003E0CC1003D0CC000C10CC00CC10CC00C79
:10014000C10CC00C0F30C1054008C20072203D0830
:100150000F39C000C101C00DC10DC00DC10DC00DD2
:10016000C10DC00DC10DF030C0054008C2007220A5
:10017000240016151619BA2820000800A101A201B2
:10018000A001A3013E08031DC8283D080319E22869
:100190001030BF000310BB0DBC0DA00DA30D3E0819
:1001A0002302031DD5283D082002031CDE283D083C
:1001B000A002031CA3033E08A3020314A10DA20D79
:1001C000BF0BCA288031492A0508C3000408C200B1
:1001D0003C0EF038BE00BE07E23EBF00323EC1001A
:1001E0003C080F39BF07BF07C107E93EC000C00781
:1001F000C0073B0E0F39C007C107C00DC10DC109B3
:10020000C10D3B080F39C107BE0D0730BD000A30D4
:10021000C107C003031C0829C007BF03031C0C2926
:10022000BF07BE03031C1029BE07BD03031C14290E
:1002300085013D3084000730420542138407413078
:100240000402031942170008A000031D2F29421BB6
:100250002F29421A3929C2192F2920303229C215D3
:1002600042123030A0072008111E342923009A00C2
:100270002000840A421F1F298031792A0B08BC0004
:100280008B132300951715140000000003186D2927
:1002900013087F392000BD00230011082000BE0094
:1002A000230012082000BF003D08111E552923001D
:1002B0009A0020003E082300910020003F08230000
:1002C000920095171514000000002000BB0B69294F
:1002D0006B2923006D298E292300130D140D7F39FE
:1002E0002000BD00230011082000BE0023001208DA
:1002F0002000BF003D08111E7B2923009A0020002A
:100300003E082300910020003F0823009200910A3C
:100310000319920A03102000BB0B4129BC1B8B1749
:100320008031832A850184011F30830562302100DA
:1003300099002000A8010C3023009B00A6309E00ED
:1003400090309D0021008C140C1501302400920087
:10035000283095009413141323008C01220092017D
:1003600091012000B701B801AA102A15C430A900D4
:1003700062302100990022001D109D1021000C15F3
:100380002500930104309300940195011E109E10E6
:100390000130960022001D1421001E169E161E1309
:1003A0009E171D141E109E10103023008C0000306C
:1003B0008E000C302000A10021001D088339200090
:1003C000210421009D00E429E529000022009D115F
:1003D00035302000980099010030A10006389C00BB
:1003E0001F309B00210011159114C0308B049D1407
:1003F0009D18F8291C082000A30021001B082000DC
:10040000B1002308B20006303307A1000030343DAC
:10041000A30023083202031C132A031D252A3108D6
:100420002102031C252A06303302A0000030343B91
:10043000A3002008A10032082302031C352A031D53
:10044000252A210831020318352A3208B400310860
:10045000B300B10DB20DB10DB20DFC30B1053208D3
:10046000BE003108BD00BF018620AA1C832A0B13E1
:100470008B138B1B382A2E08BA002D08B900C03008
:100480008B043A08BC003908BB00BE013E30BD00F9
:10049000BE282208AC002108AB002B0DA2002C0DB9
:1004A000A300A20DA30DFC30A2052208FF3CBB0057
:1004B0000F30BC002308BC3B3C08BE003B08BD001D
:1004C000BF0186202B0DA2002C0DA300A20DA30DB1
:1004D000FC30A2052208FF3CB5000F30B60023080F
:1004E000B63BAA10103084002C08BC002B08BB00BF
:1004F000E4286E302300910000309200031406308F
:100500002000BB003E292A1C8C2A3608BE00350874
:0E051000BD00BF0186202A102100F7296300DC
:020000040001F9
:04000E00843FFF1E0E
:00000001FF
;PIC12F1822
;CRC=7E6E  CREATED="31-May-14 09:56"
