:0600000080319F2D00007D
:0800080083018A012000200899
:10001000A4002108A5002208A6002308A700850146
:1000200091308400801C162891188D28850191300C
:100030008400001D1D281119A0282408A0002508EF
:10004000A1002608A2002708A30009000B006F34B6
:10005000033435340334E9340234993402343C3403
:100060000234D634013464340134DC3400345D3479
:100070000034423400340B0081341034F534C3347E
:100080008134093499349A3480347E34B83452340B
:1000900080345A343D34713480340A343D34713400
:1000A0007E3497340A343D3482348634E134483423
:1000B00084348C347034A4348634C2340C34CD345B
:1000C00087349734C03400340B007C347A34E13404
:1000D00048347E3430342034C5347F340034003426
:1000E00000347F3430340034003480340034003441
:1000F0000034803446346634663481343634D9343E
:10010000173482345534BA345E34843453349534DD
:10011000813485341A346F341B342E08033C031C9D
:100120009B28031D97282D08E73C031C9B280130C2
:10013000AD070030AE3D07089110911080311D28A9
:100140002E08023C0318AE28FF3A031DAB282D08E9
:10015000833C0318AE282A15AA102A142A1DBC288D
:10016000AE01AD01250012082000C30025001108D2
:100170002000C2002A11D1284208250011022000C7
:10018000AB0043082500123B2000AC0025001208FC
:100190002000C300250011082000C200AE01AD01FF
:1001A000AA14111180311D282533A0316136E33A9C
:1001B000EC30F432E42FF6376C3AE13365108A06FE
:1001C000803B24009513200091114D0824009100DC
:1001D0000230951BF2282000911DEC2800302400ED
:1001E000161B01302000A100080024001614161868
:1001F000F72820002908CD00E120CA0803190429A6
:100200006030CD00E12007294030CD00E120490CCD
:10021000CC00480CCB00CC0CCB0CCC0CCB0CCC0CBD
:10022000CB0C0F30CC054B08CD00E12048080F392E
:10023000CB00CC01CB0DCC0DCB0DCC0DCB0DCC0D13
:10024000CB0DCC0DF030CB054B08CD00E1202400C8
:1002500016151619292920000800A101A201A001E4
:10026000A3014908031D37294808031951291030F3
:10027000CA000310C60DC70DA00DA30D4908230227
:10028000031D442948082002031C4D294808A002E8
:10029000031CA3034908A3020314A10DA20DCA0B5A
:1002A00039298031562EB630A000A301A201A10148
:1002B0004608470448044904031D6029A0016D292C
:1002C0000310A11B6C29C60DC70DC80DC90DA30DC8
:1002D000A20DA10DA00B6029A11380318F2E4A0819
:1002E0000319342AD6004E080319342AD602031CF7
:1002F0007E297F30D6070318342A84298130D6021C
:10030000031C342A0319342A5608A000A101A201B3
:10031000A301D5014B08D400D4174C08D3004D08D5
:10032000D2001930D6005108D2020318A729013093
:10033000D3020318A729D4020318A729D50203184A
:10034000A729D50AD40AD30A5108D207D9295008B7
:10035000D3020318C2290130D4020318C229D502DE
:100360000318C229D50AD40A5008D3075108D20766
:10037000031CD929D30A031DD929D40A031DD9295D
:10038000D50AD9294F088038D4020318D82901305A
:10039000D5020318D829D50A4F088038D407500849
:1003A000D307031CB629D40A031DB629D50AB629DA
:1003B0002314D60BDC29E7290310D20DD30DD40D5D
:1003C000D50D0310A30DA20DA10DD70D9329571C18
:1003D000EF290310A10CA20CA30CD70CF229A00347
:1003E0000319342AD71B1B2A0310D20DD30DD40DA9
:1003F000D50D5108D2020318072A0130D302031881
:10040000072AD4020318072AD502031C2A2A5008F7
:10041000D3020318122A0130D4020318122AD5027B
:10042000031C2A2A4F088038D40203181B2A0130E3
:10043000D502031C2A2AA30A031D2A2AA20A031D85
:100440002A2AA10A031D2A2AA00A0319342AA10C68
:10045000A20CA30C4B08D6004F08D606D61F322A92
:10046000A117382AA113382AA001A101A201A301D2
:10047000080080308318CB06D001D1014708CF0097
:100480004B08CF06460803192C2BCE00A0004A08C3
:100490000319352BCE020319D02A031C8D2A4B08D1
:1004A000D400D4174C08D3004D08D200D10103105A
:1004B000D40CD30CD20CD10CCE0B562ACF1F632AEE
:1004C0005014492B50104E10501620308500293002
:1004D00084005E2B5012CF1B772A4E1C822AD40C2C
:1004E000D30CD20CD10CA00A0319442B822AD41BA2
:1004F000852A0310D10DD20DD30DD40DA0030319FD
:10050000442B772A5017F12A50134708CF00CF1FEA
:100510008B2AD4173D2BD4133D2B4A08CE00A000C4
:100520004608CE024708D400D4174808D30049082B
:10053000D200D1010310D40CD30CD20CD10CCE0BB1
:10054000992ACF1FA62AD014492BD0104E10D016AE
:10055000203085002D3084005E2BD012CF1BBA2AAC
:100560004E1CC52AD40CD30CD20CD10CA00A0319F2
:10057000442BC52AD41BC82A0310D10DD20DD30D8C
:10058000D40DA0030319442BBA2AD017F12AD01393
:100590004B08CF00CF1FCE2AD4173D2BD4133D2BB1
:1005A0004B08D400D4174C08D3004D08D200CF1FFD
:1005B000DD2AD4135015492B5011D1014E10203093
:1005C0008500293084005E2BCF1B072B4708CF0006
:1005D0004E1CF12AD40CD30CD20CD10CA00A031956
:1005E000442BD11F022BD20A031D022BD30A031D59
:1005F000022BD40A031D022BD40CD30CD20CA00A5C
:100600000319442B501B842AD01BC72A262B803069
:10061000D406D41F0F2B492B4B08CF001C2B4708A7
:10062000CF00D408031D1C2BD308031D1C2BD2089C
:10063000031D1C2BA0013D2BD41B262B0310D10D19
:10064000D20DD30DD40DA00B1C2B442BCF1F2A2B66
:10065000D4173D2BD4133D2B4A08A0004B08D400DF
:100660004C08D3004D08D2003D2B4608A000470897
:10067000D4004808D3004908D2005408A100530808
:10068000A2005208A3007C2BA001A101A201A3019A
:100690007C2BD101D209D309D409D109D10A031D78
:1006A000572BD20A031D572BD30A0319D40A50180B
:1006B000622AD018A52A5019DC2A0C2B0008D20770
:1006C000031C682BD30A031D682BD40A03194E148C
:1006D00084030008D307031C702BD40A03194E149B
:1006E00084030008801F803AD40703184E14501A60
:1006F0006A2AD01AAD2AE42A8031CE2E8318832BA1
:1007000085015B308400A001A101A201A301DB01EE
:10071000DC01DD01DE015A085904580457040319AD
:10072000C12B2030DF000310D30DD40DD50DD60D15
:10073000DB0DDC0DDD0DDE0D5A085E02031DAA2B5C
:1007400059085D02031DAA2B58085C02031DAA2B41
:1007500057085B02031CBB2B5708DB025808031C1D
:10076000580FDC025908031C590FDD025A08031CFC
:100770005A0FDE020314A00DA10DA20DA30DDF0B75
:10078000932B5B0880005C08813F5D08823F5E0818
:10079000833F08000408CB004A08CD0003195C2CF5
:1007A0004908D6004808D5004708D4004608D300B9
:1007B000DA01D9012030D8008230D700530803195C
:1007C0004E2CDB00570803194E2CDB070318EF2BC8
:1007D0007F30DB02031C4E2C03194E2CF32B81308F
:1007E000DB0703184E2C5B08A000A101A201A301A6
:1007F0005408DF00DF175508DE005608DD0018300A
:10080000DB00DC015D1C1C2C5A08A307031C0E2C0A
:10081000A20A031D0E2CA10A0319DC175908A2070E
:10082000031C152CA10A0319DC175808D500D5178D
:100830005508A1070318DC17DC0DA10CA20CA30CB2
:10084000DF0CDE0CDD0C0310DB0B012C0130A007EC
:1008500003184E2CA11B332CDF0DA30DA20DA10DEF
:10086000A00303194E2CDF1F442CA30A031D442CA4
:10087000A20A031D442CA10A031D442CA10CA20CA6
:10088000A30CA00A03194E2C5408DC005808DC06FF
:10089000DC1F4C2CA117522CA113522CA001A1013A
:1008A000A201A3012308C9002208C8002108C7002B
:1008B0002008C600CD0BD02B4908D6004808D5002B
:1008C0004708D4004608D3005308B63CD300A30120
:1008D0005408D700D4170310D40CD50CD60CA30C95
:1008E000A20CA10CA00CD30B6B2CD71F822CA0093F
:1008F000A109A209A309A00A0319A10A0319A20ABE
:100900000319A30A2308C9002208C8002108C70048
:100910002008C600C91F992CCB03CB16C609C709EE
:10092000C809C909C60A0319C70A0319C80A03195D
:10093000C90A3B30D2009A30D100CA30D000CF0172
:100940000A30CD004A080319CB0A831420308500F1
:10095000263084004908D6004808D5004708D4004E
:100960004608D3005208DA005108D9005008D800D0
:100970004F08D7007E232108A008031DD22C4A0A65
:100980004D020319D22C4B080319D42C0F394D02F8
:100990000319CC2C0318102DCB1B102D4B1BD42C62
:1009A0002030092D2030CB05CB1EE52CCB124A0878
:1009B000031DCB032008CB002D30111EDD2C23009E
:1009C0009A0020004B08A000CB014A084D02031DED
:1009D000F62C2008CB002E30111EEC2C23009A00A0
:1009E00020004B08A0002030CB0500303030CB1E5B
:1009F000092DCB124A08031DCB032008CB002D3054
:100A0000111E002D23009A0020004B08A000CB01EE
:100A10003030A0072008111E0B2D23009A00200063
:100A200083105208D6005108D5005008D4004F0852
:100A3000D300DA01D901D8010A30D7007E23230878
:100A4000D2002208D1002108D0002008CF00CD0B11
:100A5000A52C80312C2F0B08C7008B132300951772
:100A600015140000000003185A2D13087F392000C8
:100A7000C800230011082000C9002300120820002C
:100A8000CA004808111E422D23009A002000490880
:100A90002300910020004A082300920095171514A6
:100AA000000000002000C60B562D582D23005A2DA3
:100AB0007B2D2300130D140D7F392000C800230067
:100AC00011082000C900230012082000CA004808AD
:100AD000111E682D23009A00200049082300910070
:100AE00020004A0823009200910A0319920A031079
:100AF0002000C60B2E2DC71B8B178031362F8E3052
:100B0000A0004608A0024708A2004808A100A217BA
:100B1000A0080319962D0310A208031D922DA10809
:100B20000319962DA20CA10CA00B8B2DC71F9D2D78
:100B3000A109A209A10A0319A20A80313F2F850148
:100B400084011F3083056230210099002000A80134
:100B50000C3023009B00A6309E0090309D002100A9
:100B60008C140C1501302400920028309500941349
:100B7000141323008C012200920191012000C20174
:100B8000C301AA102A15C430A900623021009900BF
:100B900022001D109D1021000C152500930104302A
:100BA0009300940195011E109E10013096002200C2
:100BB0001D1421001E169E161E139E171D141E10B6
:100BC0009E10103023008C0000308E000C3020006E
:100BD000A10021001D0883392000210421009D006F
:100BE000F12DF22D000022009D11353020009800DB
:100BF00099010030A10006389C001F309B002100A5
:100C000011159114C0308B049D149D18052E1C08DD
:100C10002000A30021001B082000AF002308B00023
:100C200006303107A1000030323DA3002308300216
:100C3000031C202E031D322E2F082102031C322EEE
:100C400006303102A0000030323BA3002008A10092
:100C500030082302031C422E031D322E21082F02CE
:100C60000318422E3008B2002F08B100AF0DB00DAE
:100C7000AF0DB00DFC30AF053008C9002F08C8001B
:100C8000CA01F520AA1C492F0B138B138B1B452E71
:100C90002C08C5002B08C400C0308B044508C700D1
:100CA0004408C600C9013E30C8002D29B801B7016B
:100CB0002208B6002108B500AA100130C1000310B7
:100CC000410DC6002620A000460A2620A3002008C9
:100CD000C6002308C700B808031D7E2EB708031DF1
:100CE0007E2E36084702031C7E2E031D7B2E350800
:100CF0004602031C7E2E0130C1075F2E0310350D06
:100D0000A000360DA100370DA200380DA300C900C8
:100D10002208C8002108C7002008C6005329CD01B9
:100D2000CC01CB018C30CA002308D1002208D000AE
:100D30002108CF002008CE006F212308C000220820
:100D4000BF002108BE002008BD00410DA000A00D7D
:100D5000FC30A0052008C6000330C60746083B202B
:100D6000A300C60346083B20A200C60346083B205A
:100D7000A10046033B20A00083144008C9003F089F
:100D8000C8003E08C7003D08C6002308CD00220861
:100D9000CC002108CB002008CA00392A2008C60050
:100DA0002108C7002208C8002308C900410DA0007F
:100DB000A00DFC30A0052008CA000330CA074A086D
:100DC0006420A300CA034A086420A200CA034A0898
:100DD0006420A1004A036420A0004908CD0048080F
:100DE000CC004708CB004608CA002308D1002208DF
:100DF000D0002108CF002008CE006F212308BC00BE
:100E00002208BB002108BA002008B9003C08CD0028
:100E10003B08CC003A08CB003908CA00E530D100C5
:100E2000FF30D0001F30CF007530CE006F21230877
:100E3000BC002208BB002108BA002008B900893094
:100E400084003C08C9003B08C8003A08C7003908BC
:100E5000C6000230CA00CA2BD530230091000030F2
:100E60009200031016302000C6002B2D3C08C9004C
:100E70003B08C8003A08C7003908C6007F2D220881
:100E8000C7002108C6002208C9002108C800CA01FD
:100E9000F5202A1C522F3408C9003308C800CA01A3
:0A0EA000F5202A102100042E630043
:020000040001F9
:04000E00843FFF1E0E
:00000001FF
;PIC12F1822
;CRC=1CDA  CREATED="07-Feb-15 17:38"
