:060000008031CF29000051
:0800080083018A012000200899
:10001000A4002108A5002208A6002308A700850146
:1000200091308400801C1628911826288501913073
:100030008400001D1D28111939282408A000250856
:10004000A1002608A2002708A30009002E08033CEF
:10005000031C3428031D30282D08E73C031C3428DA
:100060000130AD070030AE3D07089110911080318E
:100070001D282E08023C03184728FF3A031D442878
:100080002D08833C031847282A15AA102A142A1D74
:100090005528AE01AD01250012082000C50025003D
:1000A00011082000C4002A116A2844082500110202
:1000B0002000AB0045082500123B2000AC002500C5
:1000C00012082000C500250011082000C400AE0160
:1000D000AD01AA14111180311D28F432733A2005A4
:1000E0000D0025367510F6376C3A73108A0600003D
:1000F0000B08C8008B13230095171514000000008F
:1001000013087F390319BF282000C90023001108F4
:100110002000CA00230012082000CB004908111E4D
:100120008F2823009A0020004A0823009100200015
:100130004B08230092009517151400000000130DC2
:10014000140D7F390319BF282000C90023001108AE
:100150002000CA00230012082000CB004908111E0D
:10016000AF2823009A0020004A08230091002000B5
:100170004B0823009200910A0319920A7C28200060
:10018000C81B8B178031362A24009513200091114B
:100190004D08240091000230951BD5282000911DA8
:1001A000CF2800302400161B01302000A1000800D9
:1001B000240016141618DA2820002908CD00C420BF
:1001C000CA080319E7286030CD00C420EA2840306F
:1001D000CD00C420490CCC00480CCB00CC0CCB0C7F
:1001E000CC0CCB0CCC0CCB0C0F30CC054B08CD0081
:1001F000C42048080F39CB00CC01CB0DCC0DCB0D62
:10020000CC0DCB0DCC0DCB0DCC0DF030CB054B0870
:10021000CD00C4202400161516190C2980312000A9
:10022000482A0508D0000408CF00490EF038CB005A
:10023000CB07E23ECC00323ECE0049080F39CC0756
:10024000CC07CE07E93ECD00CD07CD07480E0F39CC
:10025000CD07CE07CD0DCE0DCE09CE0D48080F39F6
:10026000CE07CB0D0730CA000A30CE07CD03031CE2
:100270003529CD07CC03031C3929CC07CB03031C3C
:100280003D29CB07CA03031C412985014A3084005C
:1002900007304F054F1384074E30040203194F17E0
:1002A0000008A000031D5C294F1B5C294F1A66291A
:1002B000CF195C2920305F29CF154F123030A007AD
:1002C0002008111E612923009A002000840A4F1F74
:1002D0004C2980314F2A0B08C9008B132300951736
:1002E00015140000000003189A2913087F39200014
:1002F000CA00230011082000CB00230012082000B0
:10030000CC004A08111E822923009A0020004B08C5
:100310002300910020004C0823009200951715142B
:10032000000000002000C80B9629982923009A2974
:10033000BB292300130D140D7F392000CA002300B0
:1003400011082000CB00230012082000CC004A082E
:10035000111EA82923009A0020004B0823009100B9
:1003600020004C0823009200910A0319920A0310FE
:100370002000C80B6E29C91B8B178031592A2030E9
:1003800085002930840000080319CD29A530A0007C
:10039000A00BC8290000800BC62980315E2A850188
:1003A00084011F3083056230210099002000A801DC
:1003B0000C3023009B00A6309E0090309D00210051
:1003C0008C140C15013024009200283095009413F1
:1003D000141323008C012200920191012000C4011A
:1003E000C501AA102A15C030A90062302100990069
:1003F00022001D109D1021000C15250093010430D2
:100400009300940195011E109E1001309600220069
:100410001D1421001E169E161E139E171D141E105D
:100420009E10103023008C0000308E000C30200015
:10043000A10021001D0883392000210421009D0016
:10044000212A222A000022009D1135302000980028
:1004500099010030A10006389C001F309B006D30D0
:10046000230091000030920020007828B601B501E9
:100470003608103C031C652A031D422A3508003C3F
:10048000031C652A3608C9003508C800CA01D828E7
:10049000103084003608C9003508C80011297230B0
:1004A0002300910000309200031409302000C8009E
:1004B0006B292830C800FA30C900BF29C80B5B2A55
:0E04C000CC30B5070030B63D382A2F2A630035
:020000040001F9
:04000E00843FFF1E0E
:00000001FF
;PIC12F1822
;CRC=9824  CREATED="09-Sep-15 20:42"
